:1000000005C1000022C1000020C100001EC1000087
:100010001CC100001AC1000018C1000016C1000078
:1000200014C1000012C1000010C100000EC1000088
:100030000CC100000AC1000008C1000006C1000098
:1000400004C1000002C1000000C10000FEC00000A9
:10005000FCC00000FAC00000F8C0000011C10000A0
:10006000F4C00000F2C00000F0C00000EEC00000CC
:10007000ECC00000EAC00000E8C00000E6C00000DC
:10008000E4C00000E2C00000E0C00000DEC00000EC
:10009000DCC00000DAC00000D8C00000D6C00000FC
:1000A000D4C00000D2C00000D0C00000CEC000000C
:1000B000CCC00000CAC00000C8C00000C6C000001C
:1000C000C4C00000C2C00000C0C00000BEC000002C
:1000D000BCC00000BAC00000B8C00000B6C000003C
:1000E000B4C0000047024A023D02410281024E02B2
:1000F000520258025C02600266026A026E028102CB
:10010000740278027C020000090A02080B0C0D0739
:1001100006030401000000000000000000000000D1
:1001200000000000000000000000000000000000CF
:10013000000011100F00000000000000000000008F
:10014000000000000000000000000000010210207C
:1001500020080810204010204080020102010804FD
:100160000201010204081020408080402010080491
:1001700002018004020180402010080402010804EA
:10018000020101020408102040800102040810202E
:100190004080050505050705080808080202020257
:1001A0000A0A080804040404010101010101010113
:1001B0000303030303030303040707070C0C0C0CDE
:1001C0000C0C0C0C020202020606060606060606C7
:1001D0000B0B0B0B0B0B0B0B000022002500280058
:1001E0002B002E003100340002010000050108013F
:1001F0000B0100002100240027002A002D00300000
:10020000330001010000040107010A0111241FBE8F
:10021000CFEFD1E2DEBFCDBF00E00CBF12E0A0E027
:10022000B2E0E4E0F6E000E00BBF02C007900D9200
:10023000A230B107D9F712E0A2E0B2E001C01D92EE
:10024000AB30B107E1F7CCD1DBC1DACE61E0809110
:10025000000258C1CF93DF93C0E0D2E061E0888113
:100260008AD168EE73E080E090E077D060E088812A
:1002700082D168EE73E080E090E0DF91CF916DC0B5
:100280001F920F920FB60F9211242F933F938F93CB
:100290009F93AF93BF938091030290910402A0912A
:1002A0000502B09106023091020223E0230F2D37A0
:1002B00020F40196A11DB11D05C026E8230F02966A
:1002C000A11DB11D209302028093030290930402AA
:1002D000A0930502B0930602809107029091080254
:1002E000A0910902B0910A020196A11DB11D80934F
:1002F000070290930802A0930902B0930A02BF91EB
:10030000AF919F918F913F912F910F900FBE0F90C2
:100310001F9018953FB7F8948091070290910802BA
:10032000A0910902B0910A0226B5A89B05C02F3FF3
:1003300019F00196A11DB11D3FBF6627782F892FA7
:100340009A2F620F711D811D911D42E0660F771F6C
:10035000881F991F4A95D1F70895CF92DF92EF92A7
:10036000FF92CF93DF936B017C01D4DFEB01C114CB
:10037000D104E104F10471F0CDDF6C1B7D0B683E0C
:100380007340A8F381E0C81AD108E108F108C85108
:10039000DC4FEDCFDF91CF91FF90EF90DF90CF90CA
:1003A0000895789484B5826084BD84B5816084BDED
:1003B00085B5826085BD85B5816085BDEEE6F0E0DE
:1003C000808181608083E1E8F0E01082808182603A
:1003D0008083808181608083E0E8F0E080818160BB
:1003E0008083E1EBF0E0808184608083E0EBF0E0EB
:1003F000808181608083E1E9F0E080818260808398
:10040000808181608083E0E9F0E080818160808389
:10041000E1EAF0E080818260808380818160808376
:10042000E0EAF0E0808181608083E1E2F1E08081B8
:1004300082608083808181608083E0E2F1E080815E
:1004400081608083EAE7F0E080818460808380813E
:1004500082608083808181608083808180688083E6
:100460001092C100089590E0FC013197E131F1054F
:1004700008F047C0EE58FF4FBDC0809180008F77D5
:1004800003C0809180008F7D80938000089584B5A3
:100490008F7702C084B58F7D84BD08958091B000B0
:1004A0008F7703C08091B0008F7D8093B000089556
:1004B000809190008F7707C0809190008F7D03C05E
:1004C00080919000877F8093900008958091A00094
:1004D0008F7707C08091A0008F7D03C08091A0001E
:1004E000877F8093A0000895809120018F7707C0B7
:1004F000809120018F7D03C080912001877F8093B0
:1005000020010895CF93DF9390E0FC01E45BFE4F60
:100510002491FC01EE56FE4F8491882349F190E02E
:10052000880F991FFC01EE50FE4FA591B49188529F
:100530009E4FFC01C591D4919FB7611108C0F894FA
:100540008C91209582238C93888182230AC062300B
:1005500051F4F8948C91322F309583238C938881B9
:10056000822B888304C0F8948C91822B8C939FBF3C
:10057000DF91CF9108950F931F93CF93DF931F9235
:10058000CDB7DEB7282F30E0F901EA5FFE4F849146
:10059000F901E45BFE4F1491F901EE56FE4F049110
:1005A0000023C1F0882319F069835DDF6981E02FA2
:1005B000F0E0EE0FFF1FE852FE4FA591B4919FB7F8
:1005C000F8948C91611103C01095812301C0812B97
:1005D0008C939FBF0F90DF91CF911F910F91089542
:1005E000E0DE34DEC0E0D0E035DE2097E9F30E94A3
:1005F0000000FACFEE0FFF1F0590F491E02D199443
:04060000F894FFCF9C
:020604000D00E7
:00000001FF
